{
  "contractName": "DDosMitigation",
  "abi": [
    {
      "inputs": [],
      "stateMutability": "nonpayable",
      "type": "constructor"
    },
    {
      "anonymous": false,
      "inputs": [
        {
          "indexed": true,
          "internalType": "address",
          "name": "attacker",
          "type": "address"
        },
        {
          "indexed": false,
          "internalType": "string",
          "name": "ipAddress",
          "type": "string"
        },
        {
          "indexed": false,
          "internalType": "uint256",
          "name": "intensity",
          "type": "uint256"
        },
        {
          "indexed": false,
          "internalType": "uint256",
          "name": "timestamp",
          "type": "uint256"
        }
      ],
      "name": "DDoSAttackDetected",
      "type": "event"
    },
    {
      "inputs": [],
      "name": "maxTokens",
      "outputs": [
        {
          "internalType": "uint256",
          "name": "",
          "type": "uint256"
        }
      ],
      "stateMutability": "view",
      "type": "function",
      "constant": true
    },
    {
      "inputs": [
        {
          "internalType": "address",
          "name": "",
          "type": "address"
        }
      ],
      "name": "nodes",
      "outputs": [
        {
          "internalType": "bool",
          "name": "",
          "type": "bool"
        }
      ],
      "stateMutability": "view",
      "type": "function",
      "constant": true
    },
    {
      "inputs": [],
      "name": "owner",
      "outputs": [
        {
          "internalType": "address",
          "name": "",
          "type": "address"
        }
      ],
      "stateMutability": "view",
      "type": "function",
      "constant": true
    },
    {
      "inputs": [
        {
          "internalType": "address",
          "name": "",
          "type": "address"
        }
      ],
      "name": "tokenBalances",
      "outputs": [
        {
          "internalType": "uint256",
          "name": "",
          "type": "uint256"
        }
      ],
      "stateMutability": "view",
      "type": "function",
      "constant": true
    },
    {
      "inputs": [
        {
          "internalType": "address",
          "name": "node",
          "type": "address"
        }
      ],
      "name": "addNode",
      "outputs": [],
      "stateMutability": "nonpayable",
      "type": "function"
    },
    {
      "inputs": [
        {
          "internalType": "address",
          "name": "node",
          "type": "address"
        }
      ],
      "name": "removeNode",
      "outputs": [],
      "stateMutability": "nonpayable",
      "type": "function"
    },
    {
      "inputs": [
        {
          "internalType": "address",
          "name": "node",
          "type": "address"
        }
      ],
      "name": "isNode",
      "outputs": [
        {
          "internalType": "bool",
          "name": "",
          "type": "bool"
        }
      ],
      "stateMutability": "view",
      "type": "function",
      "constant": true
    },
    {
      "inputs": [
        {
          "internalType": "address",
          "name": "attacker",
          "type": "address"
        },
        {
          "internalType": "string",
          "name": "ipAddress",
          "type": "string"
        },
        {
          "internalType": "uint256",
          "name": "intensity",
          "type": "uint256"
        }
      ],
      "name": "reportDDoSAttack",
      "outputs": [],
      "stateMutability": "nonpayable",
      "type": "function"
    },
    {
      "inputs": [
        {
          "internalType": "address",
          "name": "sender",
          "type": "address"
        }
      ],
      "name": "getTokenBalance",
      "outputs": [
        {
          "internalType": "uint256",
          "name": "",
          "type": "uint256"
        }
      ],
      "stateMutability": "view",
      "type": "function",
      "constant": true
    },
    {
      "inputs": [
        {
          "internalType": "address",
          "name": "recipient",
          "type": "address"
        },
        {
          "internalType": "uint256",
          "name": "amount",
          "type": "uint256"
        }
      ],
      "name": "sendTokens",
      "outputs": [],
      "stateMutability": "nonpayable",
      "type": "function"
    },
    {
      "inputs": [],
      "name": "mitigate",
      "outputs": [],
      "stateMutability": "nonpayable",
      "type": "function"
    }
  ],
  "bytecode": "0x6080604052606460035534801561001557600080fd5b50336000806101000a81548173ffffffffffffffffffffffffffffffffffffffff021916908373ffffffffffffffffffffffffffffffffffffffff1602179055506112af806100656000396000f3fe608060405234801561001057600080fd5b50600436106100a95760003560e01c80638d02d4be116100715780638d02d4be1461018a5780638da5cb5b146101945780639d95f1cc146101b2578063b2b99ec9146101ce578063e8315742146101ea578063eaa5bee614610208576100a9565b806301750152146100ae57806305ab421d146100de578063189a5a17146100fa5780633aecd0e31461012a578063523fba7f1461015a575b600080fd5b6100c860048036038101906100c391906109f6565b610224565b6040516100d59190610a3e565b60405180910390f35b6100f860048036038101906100f39190610a8f565b61027a565b005b610114600480360381019061010f91906109f6565b61047d565b6040516101219190610a3e565b60405180910390f35b610144600480360381019061013f91906109f6565b61049d565b6040516101519190610ade565b60405180910390f35b610174600480360381019061016f91906109f6565b6104e6565b6040516101819190610ade565b60405180910390f35b6101926104fe565b005b61019c610663565b6040516101a99190610b08565b60405180910390f35b6101cc60048036038101906101c791906109f6565b610687565b005b6101e860048036038101906101e391906109f6565b61076f565b005b6101f2610858565b6040516101ff9190610ade565b60405180910390f35b610222600480360381019061021d9190610c69565b61085e565b005b6000600160008373ffffffffffffffffffffffffffffffffffffffff1673ffffffffffffffffffffffffffffffffffffffff16815260200190815260200160002060009054906101000a900460ff169050919050565b600160003373ffffffffffffffffffffffffffffffffffffffff1673ffffffffffffffffffffffffffffffffffffffff16815260200190815260200160002060009054906101000a900460ff16610306576040517f08c379a00000000000000000000000000000000000000000000000000000000081526004016102fd90610d35565b60405180910390fd5b60035481111561034b576040517f08c379a000000000000000000000000000000000000000000000000000000000815260040161034290610dc7565b60405180910390fd5b80600260003373ffffffffffffffffffffffffffffffffffffffff1673ffffffffffffffffffffffffffffffffffffffff1681526020019081526020016000205410156103cd576040517f08c379a00000000000000000000000000000000000000000000000000000000081526004016103c490610e33565b60405180910390fd5b80600260003373ffffffffffffffffffffffffffffffffffffffff1673ffffffffffffffffffffffffffffffffffffffff168152602001908152602001600020600082825461041c9190610e82565b9250508190555080600260008473ffffffffffffffffffffffffffffffffffffffff1673ffffffffffffffffffffffffffffffffffffffff16815260200190815260200160002060008282546104729190610eb6565b925050819055505050565b60016020528060005260406000206000915054906101000a900460ff1681565b6000600260008373ffffffffffffffffffffffffffffffffffffffff1673ffffffffffffffffffffffffffffffffffffffff168152602001908152602001600020549050919050565b60026020528060005260406000206000915090505481565b600160003373ffffffffffffffffffffffffffffffffffffffff1673ffffffffffffffffffffffffffffffffffffffff16815260200190815260200160002060009054906101000a900460ff1661058a576040517f08c379a000000000000000000000000000000000000000000000000000000000815260040161058190610f58565b60405180910390fd5b6000600260003373ffffffffffffffffffffffffffffffffffffffff1673ffffffffffffffffffffffffffffffffffffffff168152602001908152602001600020541161060c576040517f08c379a000000000000000000000000000000000000000000000000000000000815260040161060390610fc4565b60405180910390fd5b600260003373ffffffffffffffffffffffffffffffffffffffff1673ffffffffffffffffffffffffffffffffffffffff168152602001908152602001600020600081548092919061065c90610fe4565b9190505550565b60008054906101000a900473ffffffffffffffffffffffffffffffffffffffff1681565b60008054906101000a900473ffffffffffffffffffffffffffffffffffffffff1673ffffffffffffffffffffffffffffffffffffffff163373ffffffffffffffffffffffffffffffffffffffff1614610715576040517f08c379a000000000000000000000000000000000000000000000000000000000815260040161070c90611080565b60405180910390fd5b60018060008373ffffffffffffffffffffffffffffffffffffffff1673ffffffffffffffffffffffffffffffffffffffff16815260200190815260200160002060006101000a81548160ff02191690831515021790555050565b60008054906101000a900473ffffffffffffffffffffffffffffffffffffffff1673ffffffffffffffffffffffffffffffffffffffff163373ffffffffffffffffffffffffffffffffffffffff16146107fd576040517f08c379a00000000000000000000000000000000000000000000000000000000081526004016107f490611080565b60405180910390fd5b6000600160008373ffffffffffffffffffffffffffffffffffffffff1673ffffffffffffffffffffffffffffffffffffffff16815260200190815260200160002060006101000a81548160ff02191690831515021790555050565b60035481565b600160003373ffffffffffffffffffffffffffffffffffffffff1673ffffffffffffffffffffffffffffffffffffffff16815260200190815260200160002060009054906101000a900460ff166108ea576040517f08c379a00000000000000000000000000000000000000000000000000000000081526004016108e190611112565b60405180910390fd5b6000811161092d576040517f08c379a0000000000000000000000000000000000000000000000000000000008152600401610924906111a4565b60405180910390fd5b8273ffffffffffffffffffffffffffffffffffffffff167fd102d637dd8071cd02e7a1148f91b5f8ef6cbfc1873fe22e8d82f74f3854d6228383426040516109779392919061123b565b60405180910390a2505050565b6000604051905090565b600080fd5b600080fd5b600073ffffffffffffffffffffffffffffffffffffffff82169050919050565b60006109c382610998565b9050919050565b6109d3816109b8565b81146109de57600080fd5b50565b6000813590506109f0816109ca565b92915050565b600060208284031215610a0c57610a0b61098e565b5b6000610a1a848285016109e1565b91505092915050565b60008115159050919050565b610a3881610a23565b82525050565b6000602082019050610a536000830184610a2f565b92915050565b6000819050919050565b610a6c81610a59565b8114610a7757600080fd5b50565b600081359050610a8981610a63565b92915050565b60008060408385031215610aa657610aa561098e565b5b6000610ab4858286016109e1565b9250506020610ac585828601610a7a565b9150509250929050565b610ad881610a59565b82525050565b6000602082019050610af36000830184610acf565b92915050565b610b02816109b8565b82525050565b6000602082019050610b1d6000830184610af9565b92915050565b600080fd5b600080fd5b6000601f19601f8301169050919050565b7f4e487b7100000000000000000000000000000000000000000000000000000000600052604160045260246000fd5b610b7682610b2d565b810181811067ffffffffffffffff82111715610b9557610b94610b3e565b5b80604052505050565b6000610ba8610984565b9050610bb48282610b6d565b919050565b600067ffffffffffffffff821115610bd457610bd3610b3e565b5b610bdd82610b2d565b9050602081019050919050565b82818337600083830152505050565b6000610c0c610c0784610bb9565b610b9e565b905082815260208101848484011115610c2857610c27610b28565b5b610c33848285610bea565b509392505050565b600082601f830112610c5057610c4f610b23565b5b8135610c60848260208601610bf9565b91505092915050565b600080600060608486031215610c8257610c8161098e565b5b6000610c90868287016109e1565b935050602084013567ffffffffffffffff811115610cb157610cb0610993565b5b610cbd86828701610c3b565b9250506040610cce86828701610a7a565b9150509250925092565b600082825260208201905092915050565b7f4f6e6c79206e6f6465732063616e2073656e6420746f6b656e73000000000000600082015250565b6000610d1f601a83610cd8565b9150610d2a82610ce9565b602082019050919050565b60006020820190508181036000830152610d4e81610d12565b9050919050565b7f5472616e7366657220616d6f756e742065786365656473206d6178546f6b656e60008201527f7300000000000000000000000000000000000000000000000000000000000000602082015250565b6000610db1602183610cd8565b9150610dbc82610d55565b604082019050919050565b60006020820190508181036000830152610de081610da4565b9050919050565b7f496e73756666696369656e742062616c616e6365000000000000000000000000600082015250565b6000610e1d601483610cd8565b9150610e2882610de7565b602082019050919050565b60006020820190508181036000830152610e4c81610e10565b9050919050565b7f4e487b7100000000000000000000000000000000000000000000000000000000600052601160045260246000fd5b6000610e8d82610a59565b9150610e9883610a59565b925082821015610eab57610eaa610e53565b5b828203905092915050565b6000610ec182610a59565b9150610ecc83610a59565b9250827fffffffffffffffffffffffffffffffffffffffffffffffffffffffffffffffff03821115610f0157610f00610e53565b5b828201905092915050565b7f4f6e6c79206e6f6465732063616e206d697469676174652061747461636b7300600082015250565b6000610f42601f83610cd8565b9150610f4d82610f0c565b602082019050919050565b60006020820190508181036000830152610f7181610f35565b9050919050565b7f496e73756666696369656e7420746f6b656e7300000000000000000000000000600082015250565b6000610fae601383610cd8565b9150610fb982610f78565b602082019050919050565b60006020820190508181036000830152610fdd81610fa1565b9050919050565b6000610fef82610a59565b9150600082141561100357611002610e53565b5b600182039050919050565b7f4f6e6c7920746865206f776e65722063616e2063616c6c20746869732066756e60008201527f6374696f6e000000000000000000000000000000000000000000000000000000602082015250565b600061106a602583610cd8565b91506110758261100e565b604082019050919050565b600060208201905081810360008301526110998161105d565b9050919050565b7f4f6e6c79206e6f6465732063616e207265706f72742044446f5320617474616360008201527f6b73000000000000000000000000000000000000000000000000000000000000602082015250565b60006110fc602283610cd8565b9150611107826110a0565b604082019050919050565b6000602082019050818103600083015261112b816110ef565b9050919050565b7f496e74656e73697479206d7573742062652067726561746572207468616e207a60008201527f65726f0000000000000000000000000000000000000000000000000000000000602082015250565b600061118e602383610cd8565b915061119982611132565b604082019050919050565b600060208201905081810360008301526111bd81611181565b9050919050565b600081519050919050565b60005b838110156111ed5780820151818401526020810190506111d2565b838111156111fc576000848401525b50505050565b600061120d826111c4565b6112178185610cd8565b93506112278185602086016111cf565b61123081610b2d565b840191505092915050565b600060608201905081810360008301526112558186611202565b90506112646020830185610acf565b6112716040830184610acf565b94935050505056fea26469706673582212204ccf30e533749d8275edb1a1ea131b0b59709f4a5322aafc3adfa0d744b703ac64736f6c63430008090033",
  "immutableReferences": {},
  "source": "// SPDX-License-Identifier: UNLICENSED\r\npragma solidity ^0.8.9;\r\n\r\ncontract DDosMitigation {\r\n    address public owner;\r\n    mapping(address => bool) public nodes;\r\n    mapping(address => uint256) public tokenBalances;\r\n    uint256 public maxTokens = 100;\r\n    event DDoSAttackDetected(address indexed attacker, string ipAddress, uint256 intensity, uint256 timestamp); // Updated event definition\r\n    constructor() {\r\n        owner = msg.sender;\r\n    }\r\n\r\n    modifier onlyOwner() {\r\n        require(msg.sender == owner, \"Only the owner can call this function\");\r\n        _;\r\n    }\r\n\r\n    function addNode(address node) external onlyOwner {\r\n        nodes[node] = true;\r\n    }\r\n\r\n    function removeNode(address node) external onlyOwner {\r\n        nodes[node] = false;\r\n    }\r\n\r\n    function isNode(address node) external view returns (bool) {\r\n        return nodes[node];\r\n    }\r\n\r\n    function reportDDoSAttack(address attacker, string memory ipAddress, uint256 intensity) external {\r\n        require(nodes[msg.sender], \"Only nodes can report DDoS attacks\");\r\n        require(intensity > 0, \"Intensity must be greater than zero\");\r\n\r\n        // Additional validation or processing logic can be added here\r\n\r\n        // Log the DDoS attack details in the blockchain including IP Address\r\n        emit DDoSAttackDetected(attacker, ipAddress, intensity, block.timestamp);\r\n\r\n        // Implement mitigation logic or notify other components\r\n    }\r\n\r\n    function getTokenBalance(address sender) external view returns (uint256) {\r\n        return tokenBalances[sender];\r\n    }\r\n\r\n    function sendTokens(address recipient, uint256 amount) external {\r\n        require(nodes[msg.sender], \"Only nodes can send tokens\");\r\n        require(amount <= maxTokens, \"Transfer amount exceeds maxTokens\");\r\n        require(tokenBalances[msg.sender] >= amount, \"Insufficient balance\");\r\n\r\n        tokenBalances[msg.sender] -= amount;\r\n        tokenBalances[recipient] += amount;\r\n    }\r\n\r\n    function mitigate() external {\r\n        require(nodes[msg.sender], \"Only nodes can mitigate attacks\");\r\n        require(tokenBalances[msg.sender] > 0, \"Insufficient tokens\");\r\n\r\n        // Additional mitigation logic can be added here\r\n\r\n        tokenBalances[msg.sender]--;\r\n    }\r\n}\r\n",
  "sourcePath": "C:\\Users\\saiga\\DDOSCHAIN\\contracts\\DDoSmitigation.sol",
  "compiler": {
    "name": "solc",
    "version": "0.8.9+commit.e5eed63a.Emscripten.clang"
  },
  "schemaVersion": "3.4.16",
  "updatedAt": "2024-05-15T08:54:43.657Z",
  "networkType": "ethereum",
  "devdoc": {
    "kind": "dev",
    "methods": {},
    "version": 1
  },
  "userdoc": {
    "kind": "user",
    "methods": {},
    "version": 1
  }
}