{
  "contractName": "IpAddress",
  "abi": [
    {
      "inputs": [
        {
          "internalType": "uint256",
          "name": "",
          "type": "uint256"
        }
      ],
      "name": "blacklistIPaddress",
      "outputs": [
        {
          "internalType": "address",
          "name": "",
          "type": "address"
        }
      ],
      "stateMutability": "view",
      "type": "function"
    },
    {
      "inputs": [
        {
          "internalType": "address",
          "name": "_address",
          "type": "address"
        },
        {
          "internalType": "uint256",
          "name": "_node",
          "type": "uint256"
        },
        {
          "internalType": "string",
          "name": "_ipAddress",
          "type": "string"
        },
        {
          "internalType": "string",
          "name": "_state",
          "type": "string"
        },
        {
          "internalType": "uint256",
          "name": "_timestamp",
          "type": "uint256"
        }
      ],
      "name": "setIPAddress",
      "outputs": [],
      "stateMutability": "nonpayable",
      "type": "function"
    },
    {
      "inputs": [],
      "name": "getIPs",
      "outputs": [
        {
          "internalType": "address[]",
          "name": "",
          "type": "address[]"
        }
      ],
      "stateMutability": "view",
      "type": "function"
    },
    {
      "inputs": [
        {
          "internalType": "address",
          "name": "_address",
          "type": "address"
        }
      ],
      "name": "getIPAddress",
      "outputs": [
        {
          "internalType": "uint256",
          "name": "",
          "type": "uint256"
        },
        {
          "internalType": "string",
          "name": "",
          "type": "string"
        },
        {
          "internalType": "string",
          "name": "",
          "type": "string"
        },
        {
          "internalType": "uint256",
          "name": "",
          "type": "uint256"
        }
      ],
      "stateMutability": "view",
      "type": "function"
    },
    {
      "inputs": [],
      "name": "countIps",
      "outputs": [
        {
          "internalType": "uint256",
          "name": "",
          "type": "uint256"
        }
      ],
      "stateMutability": "view",
      "type": "function"
    }
  ],
  "bytecode": "0x608060405234801561001057600080fd5b50610b5a806100206000396000f3fe608060405234801561001057600080fd5b50600436106100575760003560e01c8063475ec5511461005c578063b399a19b1461007a578063bb24b896146100ad578063c7b03ca0146100dd578063f86f687a146100f9575b600080fd5b610064610117565b60405161007191906106a9565b60405180910390f35b610094600480360381019061008f919061070b565b6101a5565b6040516100a494939291906107ea565b60405180910390f35b6100c760048036038101906100c29190610869565b6103d9565b6040516100d491906108a5565b60405180910390f35b6100f760048036038101906100f291906109f5565b610418565b005b610101610509565b60405161010e9190610aa8565b60405180910390f35b6060600180548060200260200160405190810160405280929190818152602001828054801561019b57602002820191906000526020600020905b8160009054906101000a900473ffffffffffffffffffffffffffffffffffffffff1673ffffffffffffffffffffffffffffffffffffffff1681526020019060010190808311610151575b5050505050905090565b600060608060008060008673ffffffffffffffffffffffffffffffffffffffff1673ffffffffffffffffffffffffffffffffffffffff168152602001908152602001600020600001546000808773ffffffffffffffffffffffffffffffffffffffff1673ffffffffffffffffffffffffffffffffffffffff1681526020019081526020016000206001016000808873ffffffffffffffffffffffffffffffffffffffff1673ffffffffffffffffffffffffffffffffffffffff1681526020019081526020016000206002016000808973ffffffffffffffffffffffffffffffffffffffff1673ffffffffffffffffffffffffffffffffffffffff168152602001908152602001600020600301548280546102be90610af2565b80601f01602080910402602001604051908101604052809291908181526020018280546102ea90610af2565b80156103375780601f1061030c57610100808354040283529160200191610337565b820191906000526020600020905b81548152906001019060200180831161031a57829003601f168201915b5050505050925081805461034a90610af2565b80601f016020809104026020016040519081016040528092919081815260200182805461037690610af2565b80156103c35780601f10610398576101008083540402835291602001916103c3565b820191906000526020600020905b8154815290600101906020018083116103a657829003601f168201915b5050505050915093509350935093509193509193565b600181815481106103e957600080fd5b906000526020600020016000915054906101000a900473ffffffffffffffffffffffffffffffffffffffff1681565b60008060008773ffffffffffffffffffffffffffffffffffffffff1673ffffffffffffffffffffffffffffffffffffffff16815260200190815260200160002090508481600001819055508381600101908051906020019061047b929190610516565b5082816002019080519060200190610494929190610516565b508181600301819055506001869080600181540180825580915050600190039060005260206000200160009091909190916101000a81548173ffffffffffffffffffffffffffffffffffffffff021916908373ffffffffffffffffffffffffffffffffffffffff160217905550505050505050565b6000600180549050905090565b82805461052290610af2565b90600052602060002090601f016020900481019282610544576000855561058b565b82601f1061055d57805160ff191683800117855561058b565b8280016001018555821561058b579182015b8281111561058a57825182559160200191906001019061056f565b5b509050610598919061059c565b5090565b5b808211156105b557600081600090555060010161059d565b5090565b600081519050919050565b600082825260208201905092915050565b6000819050602082019050919050565b600073ffffffffffffffffffffffffffffffffffffffff82169050919050565b6000610610826105e5565b9050919050565b61062081610605565b82525050565b60006106328383610617565b60208301905092915050565b6000602082019050919050565b6000610656826105b9565b61066081856105c4565b935061066b836105d5565b8060005b8381101561069c5781516106838882610626565b975061068e8361063e565b92505060018101905061066f565b5085935050505092915050565b600060208201905081810360008301526106c3818461064b565b905092915050565b6000604051905090565b600080fd5b600080fd5b6106e881610605565b81146106f357600080fd5b50565b600081359050610705816106df565b92915050565b600060208284031215610721576107206106d5565b5b600061072f848285016106f6565b91505092915050565b6000819050919050565b61074b81610738565b82525050565b600081519050919050565b600082825260208201905092915050565b60005b8381101561078b578082015181840152602081019050610770565b8381111561079a576000848401525b50505050565b6000601f19601f8301169050919050565b60006107bc82610751565b6107c6818561075c565b93506107d681856020860161076d565b6107df816107a0565b840191505092915050565b60006080820190506107ff6000830187610742565b818103602083015261081181866107b1565b9050818103604083015261082581856107b1565b90506108346060830184610742565b95945050505050565b61084681610738565b811461085157600080fd5b50565b6000813590506108638161083d565b92915050565b60006020828403121561087f5761087e6106d5565b5b600061088d84828501610854565b91505092915050565b61089f81610605565b82525050565b60006020820190506108ba6000830184610896565b92915050565b600080fd5b600080fd5b7f4e487b7100000000000000000000000000000000000000000000000000000000600052604160045260246000fd5b610902826107a0565b810181811067ffffffffffffffff82111715610921576109206108ca565b5b80604052505050565b60006109346106cb565b905061094082826108f9565b919050565b600067ffffffffffffffff8211156109605761095f6108ca565b5b610969826107a0565b9050602081019050919050565b82818337600083830152505050565b600061099861099384610945565b61092a565b9050828152602081018484840111156109b4576109b36108c5565b5b6109bf848285610976565b509392505050565b600082601f8301126109dc576109db6108c0565b5b81356109ec848260208601610985565b91505092915050565b600080600080600060a08688031215610a1157610a106106d5565b5b6000610a1f888289016106f6565b9550506020610a3088828901610854565b945050604086013567ffffffffffffffff811115610a5157610a506106da565b5b610a5d888289016109c7565b935050606086013567ffffffffffffffff811115610a7e57610a7d6106da565b5b610a8a888289016109c7565b9250506080610a9b88828901610854565b9150509295509295909350565b6000602082019050610abd6000830184610742565b92915050565b7f4e487b7100000000000000000000000000000000000000000000000000000000600052602260045260246000fd5b60006002820490506001821680610b0a57607f821691505b60208210811415610b1e57610b1d610ac3565b5b5091905056fea264697066735822122043fbbb07dcdeda59f9bef30e74b531ef9cd48ed90743164ce8ea03313c8f6fe464736f6c63430008090033",
  "immutableReferences": {},
  "source": "// SPDX-License-Identifier: GPL-3.0\r\n\r\npragma solidity >=0.7.0 <0.9.0;\r\n\r\n\r\n/**\r\n   * @title ContractName\r\n   * @dev ContractDescription\r\n   * @custom:dev-run-script file_path\r\n   */\r\n   \r\ncontract IpAddress {\r\n\r\n    struct IP {\r\n        uint node;\r\n        string ipAddress;\r\n        string state;\r\n        uint256 timestamp;\r\n    }\r\n\r\n    mapping (address => IP) blacklistIP;\r\n    address[] public blacklistIPaddress;\r\n\r\n    function setIPAddress(address _address, uint _node, string memory _ipAddress, string memory _state, uint256 _timestamp) public {\r\n        IP storage variable = blacklistIP[_address];\r\n        variable.node = _node;\r\n        variable.ipAddress = _ipAddress;\r\n        variable.state = _state;\r\n        variable.timestamp = _timestamp;\r\n        \r\n        blacklistIPaddress.push(_address); \r\n    }\r\n\r\n    function getIPs() view public returns(address[] memory) {\r\n       return blacklistIPaddress; \r\n    }\r\n\r\n    function getIPAddress(address _address) view public returns (uint, string memory, string memory, uint256) {\r\n       return (blacklistIP[_address].node, blacklistIP[_address].ipAddress, blacklistIP[_address].state, blacklistIP[_address].timestamp);\r\n   }\r\n   \r\n   function countIps() view public returns (uint) {\r\n       return blacklistIPaddress.length; \r\n   }\r\n}\r\n",
  "sourcePath": "C:\\Users\\saiga\\DDOSCHAIN\\contracts\\IpAddress.sol",
  "compiler": {
    "name": "solc",
    "version": "0.8.9+commit.e5eed63a.Emscripten.clang"
  },
  "schemaVersion": "3.4.16",
  "updatedAt": "2024-05-15T08:54:37.439Z",
  "devdoc": {
    "custom:dev-run-script": "file_path",
    "details": "ContractDescription",
    "kind": "dev",
    "methods": {},
    "title": "ContractName",
    "version": 1
  },
  "userdoc": {
    "kind": "user",
    "methods": {},
    "version": 1
  }
}