{
  "contractName": "IPStorage",
  "abi": [
    {
      "inputs": [
        {
          "internalType": "uint256",
          "name": "",
          "type": "uint256"
        }
      ],
      "name": "blockDataMap",
      "outputs": [
        {
          "internalType": "string",
          "name": "ipAddress",
          "type": "string"
        },
        {
          "internalType": "uint256",
          "name": "arbitraryData",
          "type": "uint256"
        }
      ],
      "stateMutability": "view",
      "type": "function"
    },
    {
      "inputs": [],
      "name": "storeRandomIP",
      "outputs": [],
      "stateMutability": "nonpayable",
      "type": "function"
    }
  ],
  "bytecode": "0x608060405234801561001057600080fd5b50610541806100206000396000f3fe608060405234801561001057600080fd5b50600436106100365760003560e01c806375acdd791461003b57806383f2fce01461006c575b600080fd5b610055600480360381019061005091906102a7565b610076565b60405161006392919061037c565b60405180910390f35b610074610122565b005b6000602052806000526040600020600091509050806000018054610099906103db565b80601f01602080910402602001604051908101604052809291908181526020018280546100c5906103db565b80156101125780601f106100e757610100808354040283529160200191610112565b820191906000526020600020905b8154815290600101906020018083116100f557829003601f168201915b5050505050908060010154905082565b6000439050600081409050600081905060006101008260e01c63ffffffff1661014b919061043c565b905060008160405160200161016091906104e5565b604051602081830303815290604052905060405180604001604052808281526020018381525060008087815260200190815260200160002060008201518160000190805190602001906101b49291906101c9565b50602082015181600101559050505050505050565b8280546101d5906103db565b90600052602060002090601f0160209004810192826101f7576000855561023e565b82601f1061021057805160ff191683800117855561023e565b8280016001018555821561023e579182015b8281111561023d578251825591602001919060010190610222565b5b50905061024b919061024f565b5090565b5b80821115610268576000816000905550600101610250565b5090565b600080fd5b6000819050919050565b61028481610271565b811461028f57600080fd5b50565b6000813590506102a18161027b565b92915050565b6000602082840312156102bd576102bc61026c565b5b60006102cb84828501610292565b91505092915050565b600081519050919050565b600082825260208201905092915050565b60005b8381101561030e5780820151818401526020810190506102f3565b8381111561031d576000848401525b50505050565b6000601f19601f8301169050919050565b600061033f826102d4565b61034981856102df565b93506103598185602086016102f0565b61036281610323565b840191505092915050565b61037681610271565b82525050565b600060408201905081810360008301526103968185610334565b90506103a5602083018461036d565b9392505050565b7f4e487b7100000000000000000000000000000000000000000000000000000000600052602260045260246000fd5b600060028204905060018216806103f357607f821691505b60208210811415610407576104066103ac565b5b50919050565b7f4e487b7100000000000000000000000000000000000000000000000000000000600052601260045260246000fd5b600061044782610271565b915061045283610271565b9250826104625761046161040d565b5b828206905092915050565b600081905092915050565b7f3139322e3136382e312e00000000000000000000000000000000000000000000600082015250565b60006104ae600a8361046d565b91506104b982610478565b600a82019050919050565b6000819050919050565b6104df6104da82610271565b6104c4565b82525050565b60006104f0826104a1565b91506104fc82846104ce565b6020820191508190509291505056fea26469706673582212206ad707c56f2f419947759fac0c21c52dc6adecf33bfb22b98ace0b0d693c125b64736f6c63430008090033",
  "immutableReferences": {},
  "source": "// SPDX-License-Identifier: UNLICENSED\r\npragma solidity ^0.8.9;\r\ncontract IPStorage {\r\n    struct BlockData {\r\n        string ipAddress;\r\n        uint256 arbitraryData;\r\n    }\r\n    mapping(uint256 => BlockData) public blockDataMap;\r\n    function storeRandomIP() external {\r\n        uint256 blockNumber = block.number;\r\n        bytes32 blockHashBytes = blockhash(blockNumber);\r\n        bytes4 blockHash = bytes4(blockHashBytes);\r\n        uint256 randomNumber = uint256(uint32(blockHash)) % 256;        \r\n        string memory ipAddress = string(abi.encodePacked(\"192.168.1.\", uint256(randomNumber)));\r\n        blockDataMap[blockNumber] = BlockData(ipAddress, randomNumber);\r\n    }\r\n}\r\n",
  "sourcePath": "C:\\Users\\saiga\\DDOSCHAIN\\contracts\\IPStorage.sol",
  "compiler": {
    "name": "solc",
    "version": "0.8.9+commit.e5eed63a.Emscripten.clang"
  },
  "schemaVersion": "3.4.16",
  "updatedAt": "2024-05-15T08:54:37.432Z",
  "devdoc": {
    "kind": "dev",
    "methods": {},
    "version": 1
  },
  "userdoc": {
    "kind": "user",
    "methods": {},
    "version": 1
  }
}