{
  "contractName": "Migration",
  "abi": [
    {
      "inputs": [
        {
          "internalType": "address",
          "name": "contractAddress",
          "type": "address"
        }
      ],
      "stateMutability": "nonpayable",
      "type": "constructor"
    },
    {
      "anonymous": false,
      "inputs": [
        {
          "indexed": true,
          "internalType": "address",
          "name": "from",
          "type": "address"
        },
        {
          "indexed": true,
          "internalType": "address",
          "name": "to",
          "type": "address"
        }
      ],
      "name": "Migrated",
      "type": "event"
    },
    {
      "inputs": [],
      "name": "migrate",
      "outputs": [],
      "stateMutability": "nonpayable",
      "type": "function"
    }
  ],
  "bytecode": "0x608060405234801561001057600080fd5b5060405161055f38038061055f833981810160405281019061003291906100db565b806000806101000a81548173ffffffffffffffffffffffffffffffffffffffff021916908373ffffffffffffffffffffffffffffffffffffffff16021790555050610108565b600080fd5b600073ffffffffffffffffffffffffffffffffffffffff82169050919050565b60006100a88261007d565b9050919050565b6100b88161009d565b81146100c357600080fd5b50565b6000815190506100d5816100af565b92915050565b6000602082840312156100f1576100f0610078565b5b60006100ff848285016100c6565b91505092915050565b610448806101176000396000f3fe608060405234801561001057600080fd5b506004361061002b5760003560e01c80638fd3ab8014610030575b600080fd5b61003861003a565b005b600060149054906101000a900460ff161561008a576040517f08c379a0000000000000000000000000000000000000000000000000000000008152600401610081906102f5565b60405180910390fd5b60008060009054906101000a900473ffffffffffffffffffffffffffffffffffffffff1673ffffffffffffffffffffffffffffffffffffffff166040516024016040516020818303038152906040527f8d02d4be000000000000000000000000000000000000000000000000000000007bffffffffffffffffffffffffffffffffffffffffffffffffffffffff19166020820180517bffffffffffffffffffffffffffffffffffffffffffffffffffffffff8381831617835250505050604051610154919061038f565b6000604051808303816000865af19150503d8060008114610191576040519150601f19603f3d011682016040523d82523d6000602084013e610196565b606091505b50509050806101da576040517f08c379a00000000000000000000000000000000000000000000000000000000081526004016101d1906103f2565b60405180910390fd5b6001600060146101000a81548160ff02191690831515021790555060008054906101000a900473ffffffffffffffffffffffffffffffffffffffff1673ffffffffffffffffffffffffffffffffffffffff163073ffffffffffffffffffffffffffffffffffffffff167f844985ce6880ca51e25a6d4ecc8af37a5de880279f2081af96d0e875c42b708260405160405180910390a350565b600082825260208201905092915050565b7f436f6e74726163742068617320616c7265616479206265656e206d696772617460008201527f6564000000000000000000000000000000000000000000000000000000000000602082015250565b60006102df602283610272565b91506102ea82610283565b604082019050919050565b6000602082019050818103600083015261030e816102d2565b9050919050565b600081519050919050565b600081905092915050565b60005b8381101561034957808201518184015260208101905061032e565b83811115610358576000848401525b50505050565b600061036982610315565b6103738185610320565b935061038381856020860161032b565b80840191505092915050565b600061039b828461035e565b915081905092915050565b7f4d6967726174696f6e206661696c656400000000000000000000000000000000600082015250565b60006103dc601083610272565b91506103e7826103a6565b602082019050919050565b6000602082019050818103600083015261040b816103cf565b905091905056fea264697066735822122044d038f1a1c88017eb12b2a88e75295ef8acc7fd9da1a770a72110cb56dbec7064736f6c63430008090033",
  "immutableReferences": {},
  "source": "// SPDX-License-Identifier: UNLICENSED\r\npragma solidity ^0.8.0;\r\n\r\ncontract DDosMitigation {\r\n    address public owner;\r\n    mapping(address => bool) public nodes;\r\n    mapping(address => uint256) public tokenBalances;\r\n    uint256 public maxTokens = 100;\r\n    event DDoSAttackDetected(address indexed attacker, uint256 intensity, uint256 timestamp);\r\n    constructor() {\r\n        owner = msg.sender;\r\n    }\r\n\r\n    modifier onlyOwner() {\r\n        require(msg.sender == owner, \"Only the owner can call this function\");\r\n        _;\r\n    }\r\n\r\n    function addNode(address node) external onlyOwner {\r\n        nodes[node] = true;\r\n    }\r\n\r\n    function removeNode(address node) external onlyOwner {\r\n        nodes[node] = false;\r\n    }\r\n\r\n    function isNode(address node) external view returns (bool) {\r\n        return nodes[node];\r\n    }\r\n\r\n    function reportDDoSAttack(address attacker, uint256 intensity) external {\r\n        require(nodes[msg.sender], \"Only nodes can report DDoS attacks\");\r\n        require(intensity > 0, \"Intensity must be greater than zero\");\r\n\r\n        // Additional validation or processing logic can be added here\r\n\r\n        // Log the DDoS attack details in the blockchain\r\n        emit DDoSAttackDetected(attacker, intensity, block.timestamp);\r\n\r\n        // Implement mitigation logic or notify other components\r\n    }\r\n\r\n    function getTokenBalance(address sender) external view returns (uint256) {\r\n        return tokenBalances[sender];\r\n    }\r\n\r\n    function sendTokens(address recipient, uint256 amount) external {\r\n        require(nodes[msg.sender], \"Only nodes can send tokens\");\r\n        require(amount <= maxTokens, \"Transfer amount exceeds maxTokens\");\r\n        require(tokenBalances[msg.sender] >= amount, \"Insufficient balance\");\r\n\r\n        tokenBalances[msg.sender] -= amount;\r\n        tokenBalances[recipient] += amount;\r\n    }\r\n\r\n    function mitigate() external {\r\n        require(nodes[msg.sender], \"Only nodes can mitigate attacks\");\r\n        require(tokenBalances[msg.sender] > 0, \"Insufficient tokens\");\r\n\r\n        // Additional mitigation logic can be added here\r\n\r\n        tokenBalances[msg.sender]--;\r\n    }\r\n}\r\n\r\ncontract Migration {\r\n    // Address of the contract that is being migrated\r\n    address private _contractAddress;\r\n\r\n    // Boolean flag to indicate if the contract has been migrated\r\n    bool private _migrated;\r\n\r\n    // Event that is emitted when the contract is migrated\r\n    event Migrated(address indexed from, address indexed to);\r\n\r\n    /**\r\n     * @dev Constructor that sets the address of the contract that is being migrated\r\n     * @param contractAddress The address of the contract that is being migrated\r\n     */\r\n    constructor(address contractAddress) {\r\n        _contractAddress = contractAddress;\r\n    }\r\n\r\n    /**\r\n     * @dev Function to migrate the contract\r\n     */\r\n    function migrate() public {\r\n        // Check if the contract has already been migrated\r\n        require(!_migrated, \"Contract has already been migrated\");\r\n\r\n        // Call the contract's migration function\r\n        (bool success, ) = _contractAddress.call(abi.encodeWithSignature(\"mitigate()\"));\r\n        require(success, \"Migration failed\");\r\n\r\n        // Update the migrated flag\r\n        _migrated = true;\r\n\r\n        // Emit the Migrated event\r\n        emit Migrated(address(this), _contractAddress);\r\n    }\r\n}\r\n",
  "sourcePath": "C:\\Users\\saiga\\DDOSCHAIN\\contracts\\DDoSmitigation.sol",
  "compiler": {
    "name": "solc",
    "version": "0.8.9+commit.e5eed63a.Emscripten.clang"
  },
  "schemaVersion": "3.4.16",
  "updatedAt": "2024-04-15T00:58:30.820Z",
  "devdoc": {
    "kind": "dev",
    "methods": {
      "constructor": {
        "details": "Constructor that sets the address of the contract that is being migrated",
        "params": {
          "contractAddress": "The address of the contract that is being migrated"
        }
      },
      "migrate()": {
        "details": "Function to migrate the contract"
      }
    },
    "version": 1
  },
  "userdoc": {
    "kind": "user",
    "methods": {},
    "version": 1
  }
}